{
  "_format": "hh-sol-artifact-1",
  "contractName": "token",
  "sourceName": "contracts/tokens.sol",
  "abi": [
    {
      "inputs": [],
      "stateMutability": "nonpayable",
      "type": "constructor"
    },
    {
      "inputs": [],
      "name": "Token",
      "outputs": [
        {
          "internalType": "string",
          "name": "",
          "type": "string"
        }
      ],
      "stateMutability": "view",
      "type": "function"
    },
    {
      "inputs": [
        {
          "internalType": "address",
          "name": "account",
          "type": "address"
        }
      ],
      "name": "balview",
      "outputs": [
        {
          "internalType": "uint256",
          "name": "",
          "type": "uint256"
        }
      ],
      "stateMutability": "view",
      "type": "function"
    },
    {
      "inputs": [],
      "name": "name",
      "outputs": [
        {
          "internalType": "string",
          "name": "",
          "type": "string"
        }
      ],
      "stateMutability": "view",
      "type": "function"
    },
    {
      "inputs": [],
      "name": "owner",
      "outputs": [
        {
          "internalType": "address",
          "name": "",
          "type": "address"
        }
      ],
      "stateMutability": "view",
      "type": "function"
    },
    {
      "inputs": [],
      "name": "totalsupply",
      "outputs": [
        {
          "internalType": "uint256",
          "name": "",
          "type": "uint256"
        }
      ],
      "stateMutability": "view",
      "type": "function"
    },
    {
      "inputs": [
        {
          "internalType": "uint256",
          "name": "amount",
          "type": "uint256"
        },
        {
          "internalType": "address",
          "name": "to",
          "type": "address"
        }
      ],
      "name": "transfer",
      "outputs": [],
      "stateMutability": "payable",
      "type": "function"
    }
  ],
  "bytecode": "0x60806040526040518060400160405280600581526020017f5061727468000000000000000000000000000000000000000000000000000000815250600090816200004a9190620003ac565b506040518060400160405280600181526020017f500000000000000000000000000000000000000000000000000000000000000081525060019081620000919190620003ac565b506064600255348015620000a457600080fd5b50600254600460003373ffffffffffffffffffffffffffffffffffffffff1673ffffffffffffffffffffffffffffffffffffffff1681526020019081526020016000208190555033600360006101000a81548173ffffffffffffffffffffffffffffffffffffffff021916908373ffffffffffffffffffffffffffffffffffffffff16021790555062000493565b600081519050919050565b7f4e487b7100000000000000000000000000000000000000000000000000000000600052604160045260246000fd5b7f4e487b7100000000000000000000000000000000000000000000000000000000600052602260045260246000fd5b60006002820490506001821680620001b457607f821691505b602082108103620001ca57620001c96200016c565b5b50919050565b60008190508160005260206000209050919050565b60006020601f8301049050919050565b600082821b905092915050565b600060088302620002347fffffffffffffffffffffffffffffffffffffffffffffffffffffffffffffffff82620001f5565b620002408683620001f5565b95508019841693508086168417925050509392505050565b6000819050919050565b6000819050919050565b60006200028d62000287620002818462000258565b62000262565b62000258565b9050919050565b6000819050919050565b620002a9836200026c565b620002c1620002b88262000294565b84845462000202565b825550505050565b600090565b620002d8620002c9565b620002e58184846200029e565b505050565b5b818110156200030d5762000301600082620002ce565b600181019050620002eb565b5050565b601f8211156200035c576200032681620001d0565b6200033184620001e5565b8101602085101562000341578190505b620003596200035085620001e5565b830182620002ea565b50505b505050565b600082821c905092915050565b6000620003816000198460080262000361565b1980831691505092915050565b60006200039c83836200036e565b9150826002028217905092915050565b620003b78262000132565b67ffffffffffffffff811115620003d357620003d26200013d565b5b620003df82546200019b565b620003ec82828562000311565b600060209050601f8311600181146200042457600084156200040f578287015190505b6200041b85826200038e565b8655506200048b565b601f1984166200043486620001d0565b60005b828110156200045e5784890151825560018201915060208501945060208101905062000437565b868310156200047e57848901516200047a601f8916826200036e565b8355505b6001600288020188555050505b505050505050565b6107c780620004a36000396000f3fe6080604052600436106100555760003560e01c806306fdde031461005a5780634dfef1451461008557806372dd529b146100c25780638da5cb5b146100ed578063b7760c8f14610118578063c241267614610134575b600080fd5b34801561006657600080fd5b5061006f61015f565b60405161007c91906104b2565b60405180910390f35b34801561009157600080fd5b506100ac60048036038101906100a79190610537565b6101ed565b6040516100b9919061057d565b60405180910390f35b3480156100ce57600080fd5b506100d7610236565b6040516100e4919061057d565b60405180910390f35b3480156100f957600080fd5b5061010261023c565b60405161010f91906105a7565b60405180910390f35b610132600480360381019061012d91906105ee565b610262565b005b34801561014057600080fd5b50610149610394565b60405161015691906104b2565b60405180910390f35b6000805461016c9061065d565b80601f01602080910402602001604051908101604052809291908181526020018280546101989061065d565b80156101e55780601f106101ba576101008083540402835291602001916101e5565b820191906000526020600020905b8154815290600101906020018083116101c857829003601f168201915b505050505081565b6000600460008373ffffffffffffffffffffffffffffffffffffffff1673ffffffffffffffffffffffffffffffffffffffff168152602001908152602001600020549050919050565b60025481565b600360009054906101000a900473ffffffffffffffffffffffffffffffffffffffff1681565b81600460003373ffffffffffffffffffffffffffffffffffffffff1673ffffffffffffffffffffffffffffffffffffffff1681526020019081526020016000205410156102e4576040517f08c379a00000000000000000000000000000000000000000000000000000000081526004016102db906106da565b60405180910390fd5b81600460003373ffffffffffffffffffffffffffffffffffffffff1673ffffffffffffffffffffffffffffffffffffffff16815260200190815260200160002060008282546103339190610729565b9250508190555081600460008373ffffffffffffffffffffffffffffffffffffffff1673ffffffffffffffffffffffffffffffffffffffff1681526020019081526020016000206000828254610389919061075d565b925050819055505050565b600180546103a19061065d565b80601f01602080910402602001604051908101604052809291908181526020018280546103cd9061065d565b801561041a5780601f106103ef5761010080835404028352916020019161041a565b820191906000526020600020905b8154815290600101906020018083116103fd57829003601f168201915b505050505081565b600081519050919050565b600082825260208201905092915050565b60005b8381101561045c578082015181840152602081019050610441565b60008484015250505050565b6000601f19601f8301169050919050565b600061048482610422565b61048e818561042d565b935061049e81856020860161043e565b6104a781610468565b840191505092915050565b600060208201905081810360008301526104cc8184610479565b905092915050565b600080fd5b600073ffffffffffffffffffffffffffffffffffffffff82169050919050565b6000610504826104d9565b9050919050565b610514816104f9565b811461051f57600080fd5b50565b6000813590506105318161050b565b92915050565b60006020828403121561054d5761054c6104d4565b5b600061055b84828501610522565b91505092915050565b6000819050919050565b61057781610564565b82525050565b6000602082019050610592600083018461056e565b92915050565b6105a1816104f9565b82525050565b60006020820190506105bc6000830184610598565b92915050565b6105cb81610564565b81146105d657600080fd5b50565b6000813590506105e8816105c2565b92915050565b60008060408385031215610605576106046104d4565b5b6000610613858286016105d9565b925050602061062485828601610522565b9150509250929050565b7f4e487b7100000000000000000000000000000000000000000000000000000000600052602260045260246000fd5b6000600282049050600182168061067557607f821691505b6020821081036106885761068761062e565b5b50919050565b7f6e6f7420656e6f75676820616d6f756e74000000000000000000000000000000600082015250565b60006106c460118361042d565b91506106cf8261068e565b602082019050919050565b600060208201905081810360008301526106f3816106b7565b9050919050565b7f4e487b7100000000000000000000000000000000000000000000000000000000600052601160045260246000fd5b600061073482610564565b915061073f83610564565b9250828203905081811115610757576107566106fa565b5b92915050565b600061076882610564565b915061077383610564565b925082820190508082111561078b5761078a6106fa565b5b9291505056fea26469706673582212204de6422f6648bf5750830f8c62e8c4147aaa44e978cb92610ff2a77ca4507ff264736f6c63430008120033",
  "linkReferences": {},
  "deployedLinkReferences": {}
}